{
  "contractName": "Dogs",
  "abi": [
    {
      "constant": true,
      "inputs": [],
      "name": "_initialized",
      "outputs": [
        {
          "name": "",
          "type": "bool"
        }
      ],
      "payable": false,
      "stateMutability": "view",
      "type": "function"
    },
    {
      "constant": true,
      "inputs": [],
      "name": "owner",
      "outputs": [
        {
          "name": "",
          "type": "address"
        }
      ],
      "payable": false,
      "stateMutability": "view",
      "type": "function"
    },
    {
      "inputs": [],
      "payable": false,
      "stateMutability": "nonpayable",
      "type": "constructor"
    },
    {
      "constant": true,
      "inputs": [],
      "name": "getNumberOfDogs",
      "outputs": [
        {
          "name": "",
          "type": "uint256"
        }
      ],
      "payable": false,
      "stateMutability": "view",
      "type": "function"
    },
    {
      "constant": false,
      "inputs": [
        {
          "name": "toSet",
          "type": "uint256"
        }
      ],
      "name": "setNumberOfDogs",
      "outputs": [],
      "payable": false,
      "stateMutability": "nonpayable",
      "type": "function"
    }
  ],
  "bytecode": "0x608060405234801561001057600080fd5b5033600560006101000a81548173ffffffffffffffffffffffffffffffffffffffff021916908373ffffffffffffffffffffffffffffffffffffffff16021790555061023d806100616000396000f3fe60806040526004361061005c576000357c01000000000000000000000000000000000000000000000000000000009004806314861b22146100615780631680a5ed1461009c5780633072cf60146100c75780638da5cb5b146100f6575b600080fd5b34801561006d57600080fd5b5061009a6004803603602081101561008457600080fd5b810190808035906020019092919050505061014d565b005b3480156100a857600080fd5b506100b1610193565b6040518082815260200191505060405180910390f35b3480156100d357600080fd5b506100dc6101d8565b604051808215151515815260200191505060405180910390f35b34801561010257600080fd5b5061010b6101eb565b604051808273ffffffffffffffffffffffffffffffffffffffff1673ffffffffffffffffffffffffffffffffffffffff16815260200191505060405180910390f35b80600060405180807f446f677300000000000000000000000000000000000000000000000000000000815250600401905090815260200160405180910390208190555050565b60008060405180807f446f6773000000000000000000000000000000000000000000000000000000008152506004019050908152602001604051809103902054905090565b600560149054906101000a900460ff1681565b600560009054906101000a900473ffffffffffffffffffffffffffffffffffffffff168156fea165627a7a7230582065b4fbd6df5a0947ca2ad07179e2746c1ca57d439e9a3226a45e740b29633d450029",
  "source": "pragma solidity ^0.5.1;\r\n\r\nimport \"./Storage.sol\";\r\n\r\ncontract Dogs is Storage{\r\n\r\n    modifier onlyOwner() {\r\n        require(msg.sender == owner);\r\n        _;\r\n    }\r\n    \r\n    constructor() public {\r\n        owner = msg.sender;\r\n    }\r\n\r\n    function getNumberOfDogs() public view returns(uint256) {\r\n        return _uintStorage[\"Dogs\"];\r\n    }\r\n\r\n    function setNumberOfDogs(uint256 toSet) public {\r\n        _uintStorage[\"Dogs\"] = toSet;\r\n    }\r\n    /* this would create a new variable Cats within the uintStorage\r\n    function setNumberOfCats(uint256 toSet) public {\r\n        _uintStorage[\"Cats\"] = toSet;\r\n    }\r\n    */\r\n}",
  "sourcePath": "C:\\Users\\Brian\\OneDrive - Washington University in St. Louis\\Brian\\Ivan On tech\\Ethereum 201\\ProxyContract\\contracts\\Dogs.sol",
  "compiler": {
    "name": "solc",
    "version": "0.5.1+commit.c8a2cb62.Emscripten.clang"
  },
  "schemaVersion": "3.4.2",
  "updatedAt": "2021-12-24T14:23:29.401Z",
  "networkType": "ethereum",
  "devdoc": {
    "methods": {}
  },
  "userdoc": {
    "methods": {}
  }
}