{
  "contractName": "DogsUpdated",
  "abi": [
    {
      "constant": true,
      "inputs": [],
      "name": "_initialized",
      "outputs": [
        {
          "name": "",
          "type": "bool"
        }
      ],
      "payable": false,
      "stateMutability": "view",
      "type": "function"
    },
    {
      "constant": true,
      "inputs": [],
      "name": "owner",
      "outputs": [
        {
          "name": "",
          "type": "address"
        }
      ],
      "payable": false,
      "stateMutability": "view",
      "type": "function"
    },
    {
      "inputs": [],
      "payable": false,
      "stateMutability": "nonpayable",
      "type": "constructor"
    },
    {
      "constant": false,
      "inputs": [
        {
          "name": "_owner",
          "type": "address"
        }
      ],
      "name": "initialize",
      "outputs": [],
      "payable": false,
      "stateMutability": "nonpayable",
      "type": "function"
    },
    {
      "constant": true,
      "inputs": [],
      "name": "getNumberOfDogs",
      "outputs": [
        {
          "name": "",
          "type": "uint256"
        }
      ],
      "payable": false,
      "stateMutability": "view",
      "type": "function"
    },
    {
      "constant": false,
      "inputs": [
        {
          "name": "toSet",
          "type": "uint256"
        }
      ],
      "name": "setNumberOfDogs",
      "outputs": [],
      "payable": false,
      "stateMutability": "nonpayable",
      "type": "function"
    }
  ],
  "bytecode": "0x608060405234801561001057600080fd5b506100293361002e640100000000026401000000009004565b6100a9565b600560149054906101000a900460ff1615151561004a57600080fd5b80600560006101000a81548173ffffffffffffffffffffffffffffffffffffffff021916908373ffffffffffffffffffffffffffffffffffffffff1602179055506001600560146101000a81548160ff02191690831515021790555050565b610370806100b86000396000f3fe608060405260043610610067576000357c01000000000000000000000000000000000000000000000000000000009004806314861b221461006c5780631680a5ed146100a75780633072cf60146100d25780638da5cb5b14610101578063c4d66de814610158575b600080fd5b34801561007857600080fd5b506100a56004803603602081101561008f57600080fd5b81019080803590602001909291905050506101a9565b005b3480156100b357600080fd5b506100bc61024b565b6040518082815260200191505060405180910390f35b3480156100de57600080fd5b506100e7610290565b604051808215151515815260200191505060405180910390f35b34801561010d57600080fd5b506101166102a3565b604051808273ffffffffffffffffffffffffffffffffffffffff1673ffffffffffffffffffffffffffffffffffffffff16815260200191505060405180910390f35b34801561016457600080fd5b506101a76004803603602081101561017b57600080fd5b81019080803573ffffffffffffffffffffffffffffffffffffffff1690602001909291905050506102c9565b005b600560009054906101000a900473ffffffffffffffffffffffffffffffffffffffff1673ffffffffffffffffffffffffffffffffffffffff163373ffffffffffffffffffffffffffffffffffffffff1614151561020557600080fd5b80600060405180807f446f677300000000000000000000000000000000000000000000000000000000815250600401905090815260200160405180910390208190555050565b60008060405180807f446f6773000000000000000000000000000000000000000000000000000000008152506004019050908152602001604051809103902054905090565b600560149054906101000a900460ff1681565b600560009054906101000a900473ffffffffffffffffffffffffffffffffffffffff1681565b600560149054906101000a900460ff161515156102e557600080fd5b80600560006101000a81548173ffffffffffffffffffffffffffffffffffffffff021916908373ffffffffffffffffffffffffffffffffffffffff1602179055506001600560146101000a81548160ff0219169083151502179055505056fea165627a7a723058200c2e4e27fafe1f7acbbd7276cd2364f03b287c003fbdc54fcff6407595c072120029",
  "source": "pragma solidity ^0.5.1;\r\n\r\nimport \"./Storage.sol\";\r\n\r\ncontract DogsUpdated is Storage{\r\n\r\n    modifier onlyOwner() {\r\n        require(msg.sender == owner);\r\n        _;\r\n    }\r\n    \r\n    constructor() public {\r\n        initialize(msg.sender);\r\n    }\r\n\r\n    //this should run only once\r\n    function initialize(address _owner) public {\r\n        require(!_initialized);\r\n        owner = _owner;\r\n        _initialized = true;\r\n    }\r\n\r\n    function getNumberOfDogs() public view returns(uint256) {\r\n        return _uintStorage[\"Dogs\"];\r\n    }\r\n\r\n    function setNumberOfDogs(uint256 toSet) public onlyOwner {\r\n        _uintStorage[\"Dogs\"] = toSet;\r\n    }\r\n    /* this would create a new variable Cats within the uintStorage\r\n    function setNumberOfCats(uint256 toSet) public {\r\n        _uintStorage[\"Cats\"] = toSet;\r\n    }\r\n    */\r\n}",
  "sourcePath": "C:\\Users\\Brian\\OneDrive - Washington University in St. Louis\\Brian\\Ivan On tech\\Ethereum 201\\ProxyContract\\contracts\\DogsUpdated.sol",
  "compiler": {
    "name": "solc",
    "version": "0.5.1+commit.c8a2cb62.Emscripten.clang"
  },
  "schemaVersion": "3.4.2",
  "updatedAt": "2021-12-24T14:25:38.519Z",
  "devdoc": {
    "methods": {}
  },
  "userdoc": {
    "methods": {}
  }
}