{
  "contractName": "Storage",
  "abi": [
    {
      "constant": true,
      "inputs": [],
      "name": "_initialized",
      "outputs": [
        {
          "name": "",
          "type": "bool"
        }
      ],
      "payable": false,
      "stateMutability": "view",
      "type": "function"
    },
    {
      "constant": true,
      "inputs": [],
      "name": "owner",
      "outputs": [
        {
          "name": "",
          "type": "address"
        }
      ],
      "payable": false,
      "stateMutability": "view",
      "type": "function"
    }
  ],
  "bytecode": "0x608060405234801561001057600080fd5b50610136806100206000396000f3fe608060405260043610610046576000357c0100000000000000000000000000000000000000000000000000000000900480633072cf601461004b5780638da5cb5b1461007a575b600080fd5b34801561005757600080fd5b506100606100d1565b604051808215151515815260200191505060405180910390f35b34801561008657600080fd5b5061008f6100e4565b604051808273ffffffffffffffffffffffffffffffffffffffff1673ffffffffffffffffffffffffffffffffffffffff16815260200191505060405180910390f35b600560149054906101000a900460ff1681565b600560009054906101000a900473ffffffffffffffffffffffffffffffffffffffff168156fea165627a7a72305820f02b4bdbb2c7721851ef750eb5c27534fbf101a8c02717d4a9533724b1d9e1150029",
  "source": "pragma solidity ^0.5.1;\r\n\r\n//this storage contract allows for any number of variable to be created for proxy contract stuff.\r\ncontract Storage {\r\n\r\n    mapping (string => uint256) _uintStorage;\r\n    mapping (string => address) _addressStorage;\r\n    mapping (string => bool) _boolStorage;\r\n    mapping (string => string) _stringStorage;\r\n    mapping (string => bytes4) _bytesStorage;\r\n    /*\r\n    _uintStorage[\"number\"] = 10;\r\n    _uintStorage[\"NrOfCats\"] = 200;\r\n    */\r\n\r\n    address public owner;\r\n    bool public _initialized;\r\n\r\n}",
  "sourcePath": "C:\\Users\\Brian\\OneDrive - Washington University in St. Louis\\Brian\\Ivan On tech\\Ethereum 201\\ProxyContract\\contracts\\Storage.sol",
  "compiler": {
    "name": "solc",
    "version": "0.5.1+commit.c8a2cb62.Emscripten.clang"
  },
  "schemaVersion": "3.4.2",
  "updatedAt": "2021-12-23T11:11:08.302Z",
  "devdoc": {
    "methods": {}
  },
  "userdoc": {
    "methods": {}
  }
}